:020000040800F2
:100000004012002001010008B5240008651F000807
:1000100055200008F1080008392E000800000000F3
:100020000000000000000000000000002126000881
:10003000290A000800000000F52500082526000810
:100040001B0100081B0100081B0100081B01000820
:100050001B0100081B0100081B0100081B01000810
:100060001B0100081B0100081B0100081B01000800
:100070001B0100081B0100081B0100081B010008F0
:100080001B0100081B0100081B0100081B010008E0
:100090001B0100081B0100081B0100081B010008D0
:1000A0001B0100081B0100081B0100081B010008C0
:1000B0001B0100081B0100081B0100081B010008B0
:1000C0001B0100081B0100081B0100081B010008A0
:1000D0001B010008852B0008B92C0008052E00081C
:1000E0001B0100081B0100081B010008DFF80CD0F1
:1000F00000F06EFB00480047113900084012002054
:100100000648804706480047FEE7FEE7FEE7FEE7B1
:10011000FEE7FEE7FEE7FEE7FEE7FEE70D27000845
:10012000ED000008202A04DB203A21FA02F0002129
:10013000704721FA02F3D040C2F1200291400843F7
:100140001946704740EA01039B0703D009E008C93C
:10015000121F08C0042AFAD203E011F8013B00F88C
:10016000013B521EF9D27047D2B201E000F8012BD8
:10017000491EFBD270470022F6E710B513460A4627
:1001800004461946FFF7F0FF204610BD421E12F844
:10019000013F002BFBD111F8013B02F8013B002B82
:1001A000F9D1704730B505462A460B4612F8010BC7
:1001B00013F8014B08B1A042F8D01CB1002802D0BE
:1001C0006D1CF1E7284630BD421C10F8011B0029C8
:1001D000FBD1801A7047F0B480EA0102D40F4200CC
:1001E000B2EB410F02D20246084611464A0042D005
:1001F000C30DDDB2C1F3C752AD1A202D35DAC1F3FC
:10020000160141F4000204B15242C5F1200602FA7F
:1002100006F12A411044B3EBD05F23D0C4B1012DC5
:10022000A0EBC35009DCF0BC4FF0004202EAC3521D
:10023000DBB200F5000000F0E5B8400000F180708E
:1002400000EBC350A0F1807040EAD170490009E092
:10025000490841EAC071A0EBC35000F50000400816
:1002600000EBC350F0BC00F0C4B86142012202EBC5
:100270004101001BF6E7F0BC704781F00041AAE79E
:1002800080F00040A7E730B480EA010202F00045A8
:1002900030F0004221F0004013D090B1C30DD40DD6
:1002A000C2F31601C0F31600E41A41F4000140F451
:1002B00000027D34914201D3641C00E04900002C0F
:1002C00002DA30BC002070474FF400000023914256
:1002D00001D3891A034340084FEA4101F7D151B1D4
:1002E000914202D14FF0004105E002D24FF00101EE
:1002F00001E06FF0010103EBC450284430BC00F072
:1003000078B896230022114600F07CB800F0004235
:1003100020F00040C10DC0F3160040F400007F291A
:1003200001DA00207047962903DCC1F19601C8402C
:1003300001E096398840002AF4D04042704700F02E
:10034000004230F000400AD0C10D01F56071C0F3E9
:10035000160042EA0151C2084007114370470020CD
:100360000146704730B50B4601460020202201248B
:1003700009E021FA02F59D4205D303FA02F5491B73
:1003800004FA02F52844151EA2F10102F1DC30BD89
:100390002DE9F05F0546002092469B4688460646BA
:1003A000814640241BE02846414647462246FFF747
:1003B000B9FE53465A46C01A914110D31146184609
:1003C000224600F017FA2D1A67EB01084F46224625
:1003D0000120002100F00EFA17EB00094E41201E0B
:1003E000A4F10104DFDC484631462A464346BDE815
:1003F000F09F0029A8BF7047401C490008BF20F0AB
:100400000100704710B4B0FA80FC00FA0CF050EA1A
:10041000010404BF10BC704749B1CCF1200421FA9B
:1004200004F411FA0CF118BF012121430843A3EB96
:100430000C01CB1D4FEA00614FEA102042BF0020A3
:1004400010BC704700EBC35010440029A4BF10BC7F
:100450007047401C490008BF20F0010010BC7047E5
:100460002DE9FE4F804681EA0300C00F0C46009044
:1004700021F0004123F00045B8EB0200A94105D26C
:100480004046214690461C460B46024623F000405B
:10049000104347D0270DC7F30A00C3F30A51029057
:1004A000401A019040286BDAC3F3130040F4801B1C
:1004B0000098924620B10023D2EB030A63EB0B0BAA
:1004C00001985946C0F14002504600F093F90646A3
:1004D0000D4650465946019A00F09BF910EB080072
:1004E0006141002487EA115284EAE7731A4340D03D
:1004F000009A62B3019A012A4FEA075215DC001BE9
:1005000061EB02014FF0004202EA0752CDE90042DE
:10051000001C41F5801132462B4600F09BF903B0D8
:10052000BDE8F08F40462146F9E7001B61EB020170
:10053000001C41F5801300185B412018A2F500173C
:1005400047EB030140EAD570B6196D4111E06D0823
:100550004FEA360645EAC0754FEA0752001B61EBC9
:100560000201001C41F5801149084FEA30000019D2
:10057000514132462B4603B0BDE8F04F00F05BB965
:100580000098012240000023D0EB020263EBE073ED
:10059000009821464FEAE074B8EB000061EB0401DB
:1005A000E9E783F000435BE781F0004158E72DE97C
:1005B000FE4F81EA030404F0004421F0004100945E
:1005C0004FF0000B23F0004350EA01045ED052EAE2
:1005D00003045BD0C3F30A54C1F30A552C44A4F2BC
:1005E000F3340194A0FB0254C1F3130141F48011D0
:1005F000C3F3130343F4801301FB024400FB034ED7
:10060000840A970A44EA815447EA8357A4FB07689F
:1006100002958D0A05FB07854FEA932C04FB0C54C9
:100620002705029D4FEA065847EA1637B5EB08053D
:100630006EEB070C870E920E47EA811742EA83128F
:10064000A7FB0201B6EB0B0164EB00042B0D43EAA0
:100650000C335E1844EB1C50DA465146E7FB0201AE
:10066000C5F313044FEA0B3343EA14534FEA043241
:10067000019C43EA0603A4F10C040294009CCDE91A
:1006800000B400F0E7F803B0BDE8F08F00200146A9
:10069000F9E72DE9F04D81EA030404F0004B21F065
:1006A000004514464FF0000A23F0004150EA0502CD
:1006B00020D054EA01021DD0C5F30A570246C5F303
:1006C0001303C1F31300C1F30A5640F4801543F439
:1006D0008013A7EB0608101BD64608F2FD3873EB13
:1006E000050002D308F1010801E092185B41B8F15E
:1006F000000F03DA00200146BDE8F08D00204FF422
:100700008011064684460EE0171B73EB050705D3E0
:10071000121B63EB050306434CEA010C49084FEA40
:10072000300092185B4150EA0107EDD152EA030014
:1007300012D082EA040083EA0501084305D0101BA9
:10074000AB4106D20122002306E000224FF0004315
:1007500002E06FF0010253101AEB06004CEB085157
:1007600010EB0A0041EB0B01BDE8F04D00F063B85F
:10077000C1F30A52C1F3130140F2FF3341F4801177
:100780009A4202DA00200146704740F233439A420F
:10079000A2F2334202DC5242FFF7C4BC00F02AB896
:1007A00030B5041E71F1000404DB4FF000444042F8
:1007B00064EB0101141E73F1000405DB1C464FF0CD
:1007C0000043524263EB0403994208BF904230BD9C
:1007D000064C074D06E0E06840F0010394E807008E
:1007E00098471034AC42F6D3FFF784FC60590008F8
:1007F00080590008202A04DB203A00FA02F1002088
:1008000070479140C2F1200320FA03F3194390404E
:100810007047202A06DBCB17203A41FA02F043EA60
:10082000E07306E041FA02F3D040C2F120029140A9
:1008300008431946704710B5141E73F1000408DA16
:10084000401C41F1000192185B411A4301D120F094
:10085000010010BD2DE9F04D92469B4611B1B1FA51
:1008600081F202E0B0FA80F220329046FFF7C2FF38
:1008700004460F4640EA0A0041EA0B0153465A4635
:10088000084313D0114653EA010019D0C8F14002C1
:100890005046FFF747FC05460E465046594642462D
:1008A000FFF7A8FF084305D0012004E020463946A1
:1008B000BDE8F08D0020054346EAE0762C4337433F
:1008C0000A986305E40AA0EB08000022FD0A44EA46
:1008D00047540A3002D500200146E9E70105101906
:1008E0006941DDE9084500196941BDE8F04DA2E71D
:1008F00000BFFEE710B54FF4FA7000F031FC10BDF8
:100900002DE9F84F01F012FEA0B301F0F1FD06460B
:1009100001F0EEFD804601F0EBFD044601F0E8FD3C
:10092000054601F0E5FD074606EB080020444119A5
:10093000B94201D1012000E0002081460E48007834
:10094000C0B9B9F1000F15D02846FFF7DAFC83468D
:100950000A49FFF798FC82462046FFF7D2FC514631
:100960000090FFF738FC064948603046FFF7C9FCA5
:1009700003490860BDE8F88F5000002000002041C6
:10098000480000202DE9F04705460E4617469846D8
:10099000DDE9089A002340F63300854202DD00209D
:1009A000BDE8F08740F2B2740AE0204601F0DEFABA
:1009B00010B11948034401E018480344601C84B294
:1009C000AC42F2DB701EC6B2002410E01448005D99
:1009D00040F2A321484303EBC013284601F0C6FAB6
:1009E00018B1012C01D10F480344601C84B2B442F9
:1009F000ECDB781E40F2A321484303EBC013C8EBA5
:100A00004810C0EB082003EB0013C9EB091003EBFF
:100A1000800353441846C3E70085E2018033E101B7
:100A20006C58000880510100704700002DE9F0412A
:100A30009AB004460D4616461F46DDF88080002019
:100A40006249087041F2883000F0DCF928B100F00A
:100A500055FA01201AB0BDE8F0815DA002F0EEF970
:100A6000C8225EA15EA000F095F908B10220F1E76E
:100A70005DA002F0E3F9C82258A15EA000F08AF957
:100A800008B10320E6E75FA002F0D8F961480078DA
:100A9000B0B9642101A8FFF76EFB43463A465EA158
:100AA00001A802F0DBF944F6206261A101A800F080
:100AB00071F908B10420CDE762A002F0BFF93BE074
:100AC00064480078012833D1002062490870C822A8
:100AD00042A161A000F05EF908B10920BAE763A065
:100AE00002F0ACF965A002F0A9F9C8223BA167A009
:100AF00000F050F908B10A20ACE769A002F09EF9B5
:100B00004EF6602000F076FA18B96AA002F096F965
:100B100002E06DA002F092F9C82230A16EA000F0B0
:100B200039F908B10B2095E770A002F087F903E0CE
:100B300040F6B83002F08AFE4FF4FA7227A16FA097
:100B400000F028F908B1052084E76F4802F076F933
:100B500041F2883221A16DA000F01CF908B10620F5
:100B600078E76EA002F06AF9642101A8FFF703FBA1
:100B70006E48009650F824202B466DA101A802F083
:100B80006DF942F2107215A101A800F003F908B145
:100B900007205FE76DA002F051F941F2883270A1A1
:100BA00072A000F0F7F808B1082053E773A002F034
:100BB00045F91E207549087000207549088000F02D
:100BC0009DF9012001490870002043E7370000200B
:100BD0005245534554204F4B0D0A00004F4B000027
:100BE000415445300D0A000041544530204F4B0D13
:100BF0000A00000041542B43574D4F44453D310DF1
:100C00000A00000041542B43574D4F4445204F4BA1
:100C10000D0A00003800002041542B43574A415030
:100C20003D222573222C222573220D0A000000008C
:100C30005749464920474F542049500D0A0D0A4F45
:100C40004B0000004A6F696E204150204F4B0D0A47
:100C5000000000003900002041542B4357415554F7
:100C60004F434F4E4E3D310D0A0000004357415552
:100C7000544F434F4E4E204F4B0D0A004169726B4B
:100C80006973732053746172740D0A0041542B43CD
:100C9000575354415254534D4152540D0A000000D1
:100CA0005761697474696E672E2E2E2E2E2E2E0DAE
:100CB0000A0000004169726B6973732053756363A6
:100CC0006573730D0A0000004169726B69737320CC
:100CD0004661696C0D0A000041542B435753544F31
:100CE00050534D4152540D0A000000004169726B8F
:100CF0006973732053746F700D0A000041542B43C5
:100D0000494653520D0A00003403002041542B433E
:100D100049504D4F44453D310D0A000041542B438D
:100D200049504D4F4445204F4B0D0A003C000020D8
:100D300041542B43495053544152543D2225732270
:100D40002C222573222C25730D0A00004E455420B9
:100D5000436F6E6E656374204F4B0D0A00000000F8
:100D60000D0A4F4B0D0A0D0A3E00000041542B4363
:100D7000495053454E440D0A0000000041542B4396
:100D8000495053454E44204F4B0D0A003600002079
:100D9000300000202DE9F04106460C46154601279B
:100DA00000F0ACF80A2002F051FD304600F04CF99A
:100DB0000CB9002711E00AE0012002F047FD2146AE
:100DC000074800F047F908B9002704E00127681E2A
:100DD00080B20500F0D100BF00BF3846BDE8F08109
:100DE0003403002070B504460D46054800780128FC
:100DF00000D070BD2946204600F0F4F800BFF8E7A7
:100E00003700002070B5044601250022E902104891
:100E100000F05CFB4FF4FA7002F018FD0122D102E1
:100E20000B4800F053FB0CE0012002F00FFD0948D5
:100E3000028809A10A4800F022F908B9002504E057
:100E40000125601E80B20400EED100BF284670BDAF
:100E5000000C0140300000207265616479000000E0
:100E60003403002000B585B000BF1348806940F00E
:100E70000800114988610846806900F00800009068
:100E800000BF00BFC814019001200290022003900F
:100E90000320049001A9094800F076F9084A0021CE
:100EA0004FF4E13001F022FF1E20064908700020B7
:100EB0000549088005B000BD00100240000C01404B
:100EC000CD0E0008360000203000002008490988B7
:100ED000B1F5806F07DA06490A880988491C044B76
:100EE0001980044988540021034A1170704700009A
:100EF0003000002034030020360000200021064A84
:100F00001180002004E00021044A1154411C88B2E1
:100F1000B0F5806FF7D37047300000203403002015
:100F200010B51B480078012831D11A4800880128E3
:100F30002DD10020174908801748008817490880DC
:100F400000201549088016480078202811D114483F
:100F5000C078A8B9012013490870C82002F076FCB7
:100F600000227B2110A001F03FFA19A001F066FFDA
:100F700006E00B480078D02802D0094801F0D4F9E7
:100F800006480188064801F089FEFFF7B7FF10BD4B
:100F90003700002034000020300000203200002004
:100FA0003403002016000020247468696E672F64E3
:100FB0006F776E2F70726F70657274792F33354949
:100FC0004F345A5635444B2F6573703132660000EA
:100FD0004D51545420636F6E6E656374206F6B0DBA
:100FE0000A00000070B504460D462946204601F06F
:100FF000FAFE70BD70B5044601250CE0012002F038
:1010000025FC0848028808A10E4800F038F808B905
:10101000002504E00125601E80B20400EED100BF6F
:10102000284670BD30000020736D617274636F6E6E
:1010300066696720636F6E6E6563746564207769A7
:10104000666900003403002010B50446204601F014
:10105000BFFE10BD30B5044622460B460AE01078AC
:101060001D78A84204D15B1C187810B9002030BD4F
:101070000B46521C10780028F1D10120F7E7F0B59B
:10108000034614461E460A4600250CE030781778C1
:10109000B84204D1521C107810B90020F0BD0A46A5
:1010A000761C681C85B2A542F0DB0120F6E7000043
:1010B00070B50446002594F82100022803D00420CE
:1010C000A063012548E02068006820F00E00216838
:1010D00008602068006820F00100216808601F494E
:1010E0002068884201D1012026E01C491431206883
:1010F000884201D110201FE0184928312068884219
:1011000001D1801518E015493C312068884201D191
:10111000801411E0114950312068884202D14FF407
:10112000803009E00D4964312068884202D14FF4D3
:10113000801001E04FF080700849083948600120B4
:1011400084F8210000BF002084F8200000BF606BFD
:1011500010B12046616B8847284670BD08000240E8
:1011600070B5044600F0B8F906462546681C10B173
:1011700004480078054400BF00F0AEF9801BA84287
:10118000FAD370BD0C0000202DE9F8470346002279
:1011900094466EE14FF0010808FA02F4D1F800809D
:1011A00008EA0400A0427DD1DFF8DCA2D1F8048077
:1011B000A8EB0A09D0453AD014DCB8F1030F50D09F
:1011C00009DCB8F1000F31D0B8F1010F1CD0B8F133
:1011D000020F49D120E0B8F1110F18D0B8F1120F69
:1011E00042D11EE0B9F5881F25D006DCB9F5803F55
:1011F00020D0B9F5801F37D11AE0B9F5001F18D0FB
:10120000B9F5041F30D117E0D1F80CC02DE0D1F8AA
:101210000C8008F1040C28E0D1F80C8008F1080CCF
:1012200023E0D1F80C8008F10C0C1EE000BF00BFD9
:1012300000BF00BF00BF00BFD1F80880B8F1000FA9
:1012400002D14FF0040C0BE0D1F80880B8F1010F87
:1012500003D14FF0080C1C6102E04FF0080C5C61F8
:1012600003E04FF0000C00E000BF00BFFF2801D8F2
:10127000984601E003F104084646FF2802D84FEAE9
:10128000820803E0A2F108084FEA88084746D6F82A
:1012900000804FF00F0909FA07F928EA09080CFA4B
:1012A00007F900E088E048EA0908C6F80080D1F8AC
:1012B000048008F08058B8F1805F7DD100BFDFF86E
:1012C000CC81D8F8188048F00108DFF8C091C9F83F
:1012D0001880C846D8F8188008F00108CDF80080BA
:1012E00000BF00BF4FEAB9384FEA920958F82950B9
:1012F0004FEA82784FEA18794FF00F0808FA09F898
:1013000025EA0805DFF88881434502D14FF000083F
:1013100016E0DFF88081434502D14FF001080FE06D
:10132000DFF87481434502D14FF0020808E0DFF88E
:101330006C81434502D14FF0030801E04FF00408EF
:101340004FEA82794FEA197908FA09F848EA05055F
:10135000DFF84C814FEA920948F82950D1F804800F
:1013600008F48038B8F5803F0AD1DFF83881D8F822
:10137000008048EA0008DFF82C91C9F8008009E0F5
:10138000DFF82081D8F8008028EA0008DFF81491FF
:10139000C9F80080D1F8048008F40038B8F5003F9F
:1013A00010D1DFF8008108F10408D8F8008048EA7D
:1013B0000008DFF8F09000E05AE009F10409C9F8EC
:1013C00000800DE0DFF8DC8008F10408D8F8008028
:1013D00028EA0008DFF8CC9009F10409C9F8008078
:1013E000D1F8048008F48018B8F5801F0ED1DFF81A
:1013F000B48008F10808D8F8008048EA0008DFF84F
:10140000A49009F10809C9F800800DE0DFF8948084
:1014100008F10808D8F8008028EA0008DFF884906E
:1014200009F10809C9F80080D1F8048008F400180F
:10143000B8F5001F0ED1DFF86C8008F10C08D8F861
:10144000008048EA0008DFF85C9009F10C09C9F84F
:1014500000800DE0DFF84C8008F10C08D8F800801F
:1014600028EA0008DFF83C9009F10C09C9F800806F
:10147000521CD1F8008028FA02F8B8F1000F7FF46E
:1014800089AEBDE8F887000000001110001002408E
:1014900000080140000C0140001001400014014010
:1014A0000800014000040140024693680B400BB164
:1014B000012000E00020704710B5C26821EA020355
:1014C00002EA010443EA0443036110BD0AB1016169
:1014D00001E00B0403617047014800687047000099
:1014E00004000020034800680349097808440149C2
:1014F00008607047040000200C00002010B5084868
:10150000006840F0100006490860032000F07CF8F5
:101510000F2000F007F800F02BF8002010BD0000AD
:101520000020024070B504460E4800784FF47A71EE
:10153000B1FBF0F00C490968B1FBF0F5284600F06A
:10154000E0FB08B1012070BD102C07D2002221461B
:10155000501E00F01BF80548046001E00120F2E78E
:101560000020F0E70C000020000000200800002010
:10157000704700BF00F01F02012191404209920014
:1015800002F1E022C2F8001100BF70472DE9F05FC0
:1015900080460D461646002700F08EFF0746394666
:1015A0002A46334601F00700C0F1070ABAF1040FDA
:1015B00002D94FF0040A01E0C0F1070AD14600F158
:1015C000040ABAF1070F02D24FF0000A01E0A0F1BD
:1015D000030AD4464FF0010A0AFA09FAAAF1010AED
:1015E0000AEA020A0AFA0CFA4FF0010B0BFA0CFB9A
:1015F000ABF1010B0BEA030B4AEA0B042146404610
:1016000000F062FFBDE8F09F00BF00F00702064B4C
:1016100019684FF6FF031940044B0B4343EA0221BC
:10162000014B196000BF70470CED00E00000FA05A7
:1016300070B504460D460CB9012070BD5A480068CB
:1016400000F00700A8420ED25748006820F00700BB
:101650002843554908600846006800F00700A84282
:1016600001D00120E9E7207800F0020002281DD116
:10167000207800F00400042805D14C48406840F46C
:10168000E0604A494860207800F00800082805D149
:101690004648406840F460504449486043484068C8
:1016A00020F0F000A168084340494860207800F02D
:1016B000010078B36068012806D13C48006800F456
:1016C000003090B90120B8E76068022806D1374899
:1016D000006800F0007040B90120AEE733480068B0
:1016E00000F0020008B90120A7E73048406820F068
:1016F0000300616808432D494860FFF7EDFE064688
:1017000009E0FFF7E9FE801B41F28831884202D9E7
:10171000032092E707E02548406800F00C0061686C
:10172000B0EB810FEDD12048006800F00700A8421F
:101730000ED91D48006820F0070028431A490860A8
:101740000846006800F00700A84201D0012074E7B5
:10175000207800F00400042807D11448406820F4E1
:10176000E060E168084311494860207800F0080013
:10177000082808D10D48406820F46050216940EAEB
:10178000C1000A49486000F03FF808494968C1F3C0
:101790000311074A515CC8400649086006480068C2
:1017A000FFF7C0FE002048E7002002400010024082
:1017B000545800080000002008000020014800687C
:1017C000704700000000002000B5FFF7F7FF044954
:1017D0004968C1F30221034A515CC84000BD0000C2
:1017E000001002406458000800B5FFF7E7FF044905
:1017F0004968C1F3C221034A515CC84000BD0000E2
:101800000010024064580008F0B585B00FF26C0C6F
:101810009CE8E01001A8A0E8E0101CA52D68009548
:1018200000210022002300240020194D696801F0E6
:101830000C05F5B1042D02D0082D19D101E0154891
:1018400019E001ADC1F38346AC5D01F4803555B1BB
:101850000F4D6D68C5F340451DF805200D4D6543DE
:10186000B5FBF2F302E00C4D04FB05F3184602E071
:1018700000BF084800BF00BF05B0F0BD020304056B
:10188000060708090A0B0C0D0E0F101001020000CC
:101890000010024000127A0000093D00F8B504462D
:1018A0000CB90120F8BD207800F00100002878D0A4
:1018B000F848406800F00C0004280CD0F548406857
:1018C00000F00C00082811D1F248406800F4803084
:1018D000B0F5803F0AD1EF48006800F400300028DE
:1018E0005FD0606800285CD10120DBE700BF606842
:1018F000B0F5803F06D1E748006840F48030E54904
:10190000086028E0606858B9E248006820F4803038
:10191000E04908600846006820F4802008601AE06A
:101920006068B0F5A02F0BD1DA48006840F4802041
:10193000D84908600846006840F4803008600AE032
:10194000D448006820F48030D24908600846006816
:1019500020F48020086000BF606888B1FFF7BCFDFC
:10196000054606E0FFF7B8FD401B642801D90320B7
:1019700098E7C848006800F400300028F2D010E072
:10198000FFF7AAFD054606E0FFF7A6FD401B642809
:1019900001D9032086E7BF48006800F40030002822
:1019A000F2D1207800F00200022857D1B9484068EF
:1019B00000F00C0050B1B748406800F00C00082857
:1019C00018D1B448406800F4803098B9B148006834
:1019D00000F0020020B12069012801D0012061E758
:1019E000AC48006820F0F800616940EAC100A949EC
:1019F000086033E02069E8B10120A7490860FFF7DB
:101A00006BFD054606E0FFF767FD401B022801D984
:101A1000032047E79F48006800F002000028F2D04A
:101A20009C48006820F0F800616940EAC1009949CB
:101A3000086013E0002098490860FFF74DFD054657
:101A400006E0FFF749FD401B022801D9032029E7E2
:101A50009048006800F002000028F2D1207800F0E1
:101A6000080008282DD1A069B8B101208B49086071
:101A7000FFF732FD054606E0FFF72EFD401B02286A
:101A800001D903200EE78348406A00F002000028D5
:101A9000F2D0012000F0B0FD13E000207F49086083
:101AA000FFF71AFD054606E0FFF716FD401B02286A
:101AB00001D90320F6E67748406A00F002000028CA
:101AC000F2D1207800F00400042873D10027714877
:101AD000C06900F0805070B900BF6E48C06940F026
:101AE00080506C49C8610846C06900F08050009081
:101AF00000BF00BF01276A48006800F48070B0B9D9
:101B00006748006840F4807065490860FFF7E4FCAE
:101B1000054606E0FFF7E0FC401B642801D90320DE
:101B2000C0E65F48006800F480700028F2D000BF73
:101B3000E068012806D15748006A40F00100554985
:101B4000086227E0E06858B95248006A20F00100B6
:101B5000504908620846006A20F00400086219E053
:101B6000E06805280BD14B48006A40F00400494961
:101B700008620846006A40F0010008620AE0454831
:101B8000006A20F00100434908620846006A20F01C
:101B90000400086200BFE068A0B1FFF79DFC0546A5
:101BA00009E0FFF799FC401B41F28831884202D9D5
:101BB000032077E622E03748006A00F002000028A0
:101BC000EFD012E0FFF788FC054608E0FFF784FC41
:101BD000401B41F28831884201D9032062E62D483A
:101BE000006A00F002000028F0D1012F05D1294839
:101BF000C06920F080502749C86100BFE069C8B3C0
:101C00002448406800F00C00082860D0E0690228F1
:101C100048D1002020490866FFF75EFC054606E033
:101C2000FFF75AFC401B022801D903203AE6194865
:101C3000006800F000700028F2D1206AB0F5803F03
:101C400007D11448406820F40030A16808431149C6
:101C50004860D4E9080108430E49496821F4741129
:101C600008430C49486001200B490866FFF734FC23
:101C7000054607E03DE0FFF72FFC401B022801D995
:101C800003200FE60348006800F000700028F2D03F
:101C90002FE0000000100240000042428004424257
:101CA00000700040002014490866FFF715FC054647
:101CB00006E0FFF711FC401B022801D90320F1E5E3
:101CC0000E48006800F000700028F2D111E0E069D1
:101CD000012800D1E6E50948466806F48031206A0B
:101CE000814204D106F47011606A814201D0012062
:101CF000D8E50020D6E50000000042420010024076
:101D0000704770B504462546681EB0F1807F01D348
:101D100001200FE0681E4FF0E02148610F214FF0D5
:101D2000FF3000F0D1FB00204FF0E0218861072058
:101D30000861002070BD10B5FFF7E2FF10BD7047CD
:101D40002DE9F0470446206805682068C6682068C9
:101D500047694FF00008C14605F00F08B8F1000FC1
:101D60000AD105F0200038B106F0200020B120464D
:101D700000F00AFEBDE8F087B8F1000F71D007F05F
:101D8000010018B906F4907000286AD005F001002F
:101D900030B106F4807018B1E06B40F00100E063F0
:101DA00005F0040030B107F0010018B1E06B40F01D
:101DB0000200E06305F0020030B107F0010018B145
:101DC000E06B40F00400E06305F0080048B106F065
:101DD000200010B907F0010018B1E06B40F00800D6
:101DE000E063E06B68B305F0200028B106F0200046
:101DF00010B1204600F0C8FD20684069C0F380198A
:101E0000E06B00F0080010B9B9F1000F22D02046B5
:101E100000F09AFD2068406900F04000B0B12068F1
:101E2000406920F0400021684861606B50B118485B
:101E3000616B4863606BFFF73BF910B1606B416BFE
:101E400088470CE02046FFF77AFF08E02046FFF7BE
:101E500076FF04E02046FFF772FF0020E06389E789
:101E6000FFE705F0800030B106F0800018B1204691
:101E700000F058FE7EE705F0400030B106F040006B
:101E800018B1204600F070FD74E700BF72E7000053
:101E90003529000810B504460CB9012010BDA06911
:101EA00000B100E000BF94F8390028B9002084F8A0
:101EB0003800204600F027F8242084F839002068F4
:101EC000C06820F400502168C860204600F0ACFDD6
:101ED0002068006920F4904021680861206840690A
:101EE00020F02A00216848612068C06840F4005052
:101EF0002168C8600020E063202084F8390084F85D
:101F00003A000020CAE770477047000010B5044649
:101F100010492068884206D10F480068C0B10E49B8
:101F20000868804714E00D492068884206D10A48B5
:101F3000806868B108498868804709E008492068D6
:101F4000884205D10448006910B1034908698047F7
:101F500010BD0000003801405C0200200044004039
:101F60000048004001E000F09DFBFCE70146CA1775
:101F700001EB92729210A1EB82020AB1002070472D
:101F8000642091FBF0F200FB121008B10120F6E78B
:101F90004FF4C87091FBF0F200FB121008B9012059
:101FA000EDE70020EBE7000010B50446012C05D159
:101FB000012241030348FFF789FA00E000BF00BF98
:101FC00010BD00000010014000B585B000BF1048F2
:101FD000806940F010000E4988610846806900F071
:101FE0001000009000BF00BF4FF40050019001208E
:101FF0000290032004900120039001A90548FFF7F7
:10200000C3F8012251030348FFF760FA05B000BD91
:10201000001002400010014010B50446012C05D10B
:10202000002241030348FFF751FA00E000BF00BF60
:1020300010BD00000010014010B50446012C04D171
:1020400041030348FFF738FA00E000BF00BF10BDAE
:102050000010014000BFFEE72DE9F74F84B0824633
:1020600091465C4C5046FEF7AFF885B20598FEF7F6
:10207000ABF886B24846FEF7A7F887B20120039076
:102080000A200290281D3044801C384480B2019000
:10209000DDE9011000EB0108102004F8010B00BF7E
:1020A00040464FEAE87108EB5161C911A8EBC11B2A
:1020B0004FEAE87108EB51614FEAE118B8F1000FFF
:1020C00001DD4BF0800B04F801BB0398401C80B28B
:1020D0000390B8F1000FE3DC002004F8010B0420AA
:1020E00004F8010B4D2004F8010B512004F8010BFA
:1020F000542004F8010B04F8010B042004F8010B30
:10210000C22004F8010B3349891E0888C11700EB6F
:102110001161090A04F8011B2E49891E0888C1179C
:1021200000EB11610912A0EB012104F8011B284604
:10213000E91705EB1161090A04F8011BE91705EB22
:1021400011610912A5EB012104F8011B2A46514631
:102150002046FDF7F7FF2C443046F11706EB1161DE
:10216000090A04F8011BF11706EB11610912A6EB2D
:10217000012104F8011B324620460599FDF7E2FFD4
:1021800034443846F91707EB1161090A04F8011BBA
:10219000F91707EB11610912A7EB012104F8011BE4
:1021A0003A4649462046FDF7CDFF3C440948801E8B
:1021B000D0F8040558B1DDE9023003440198184411
:1021C00081B20448801ED0F80425801C904707B0D7
:1021D000BDE8F08F36070020034B1880C3F80415C4
:1021E000C3F80825704700003407002010B50A4CDA
:1021F000C02004F8010B002004F8010B0648801EE3
:10220000D0F8040530B10448801E0221D0F804251E
:10221000801C904710BD0000360700202DE9FF4FBD
:1022200083B082460F469046DDF840903D4C5046C4
:10223000FDF7CAFF86B25046FDF7C6FF801C484432
:1022400080B20190019DB8F1000F03D1302004F855
:10225000010B0EE0B8F1010F04D1AD1C322004F8DF
:10226000010B06E0B8F1020F03D1AD1C342004F8D5
:10227000010B00BF2846E91705EB5161C911A5EB19
:10228000C1110291E91705EB5161CD11002D03DD5C
:10229000029840F080000290029804F8010B002D93
:1022A000E8DC3046F11706EB1161090A04F8011B5E
:1022B000F11706EB11610912A6EB012104F8011BCD
:1022C000324651462046FDF73DFF3444B8F1000F39
:1022D0000ED03846F91707EB1161090A04F8011B03
:1022E000F91707EB11610912A7EB012104F8011B93
:1022F0004A4620460699FDF725FF4C440948201A16
:102300001FFA80FB0748801ED0F8040530B105484D
:10231000801E5946D0F80425801C904707B0BDE8C0
:10232000F08F0000360700202DE9F0470546002712
:1023300001264FF000084FF000092C462078302885
:1023400008D02078322805D02078342802D0012007
:10235000BDE8F0872078302801D04FF00109641CD7
:1023600000BF14F8017B07F07F0000FB0688F60130
:10237000B6F5001F01D90220EAE707F08000002827
:10238000EFD114F8010B1749A1F8020514F8011B4D
:10239000144890F8020501EB00201249A1F802054B
:1023A0000846B0F80225214600F20240FDF7CAFEB9
:1023B0000C48B0F802050444B9F1000F00D0A41C89
:1023C0000848D0F8080558B10648B0F80205A8EB4F
:1023D0000000801E81B20348D0F8082520469047AF
:1023E0000020B5E7340700202DE9FC5F80460F464A
:1023F00091462F4C4046FDF7E7FE86B20220019041
:102400004046FDF7E1FEC01C80B20090DDE90010FF
:102410004518822004F8010B00BF2846E91705EB98
:102420005161C911A5EBC11AE91705EB5161CD1135
:10243000002D01DD4AF0800A04F801AB002DECDC30
:102440003846F91707EB1161090A04F8011BF9175F
:1024500007EB11610912A7EB012104F8011B3046BB
:10246000F11706EB1161090A04F8011BF11706EBDD
:1024700011610912A6EB012104F8011B3246414605
:102480002046FDF75FFE344404F8019B0848201AFB
:102490001FFA80FB0648801ED0F8040530B10448BE
:1024A000801E5946D0F80425801C9047BDE8FC9F4B
:1024B000360700207047000002480068C0F3022081
:1024C000704700000CED00E010B5002807DA0A079D
:1024D000140E054A00F00F031B1FD45403E00A0733
:1024E000130E024A135410BD18ED00E000E400E0A2
:1024F00070B500260C48007808B1002070BD00259A
:102500000EE000F047F80446012C04DD01200649E6
:1025100008700020F2E77006060E2643681CC5B25C
:10252000082DEEDB3046E9E75000002010B5002012
:102530001649087001F0D8F9002220211448FEF74E
:10254000C5FF1420FEF70CFE012220211048FEF7E3
:10255000BDFF322001F086F901F0B4F920210C48CA
:10256000FEF7A2FF78B900BF20210948FEF79CFFC3
:102570000028F9D000BF20210548FEF795FF00286C
:10258000F9D1012010BD0020FCE700005000002020
:10259000000C014070B5002402E0012001F062F956
:1025A00020211348FEF780FF20B92046611CCCB2E1
:1025B0006428F2DB642C01DB022070BD1E2001F0D8
:1025C00051F920210A48FEF76FFF0546002402E07A
:1025D000012001F047F920210548FEF765FF20B1F1
:1025E0002046611CCCB26428F2DB2846E5E70000F7
:1025F000000C01407047000008B508490968C90887
:102600004FF47A72B1FBF2F14143009100BF00BF79
:1026100000994A1E00920029F9D108BD000000204F
:102620007047000010B5FEF75DFF0448006810B168
:10263000024908688047FFF77EFB10BD2C00002090
:1026400070B5054614480560FFF7B8F84FF47A7185
:10265000B0FBF1F4601EB0F1807F00D31BE0601E80
:102660004FF0E021486148170F21002807DA0A07D8
:10267000160E0A4A00F00F031B1FD65403E00A0788
:10268000130E074A135400BF00204FF0E021886169
:102690000720086100BF70BD2C00002018ED00E08D
:1026A00000E400E001480249086070470400FA05B0
:1026B0000CED00E070B590B006460C4600250120F8
:1026C00001900004029002200890C1030991039434
:1026D0000A9601A8FFF7E2F805460DB100BFFEE734
:1026E0000F200B9002200C9000200D904FF4806082
:1026F0000E9000200F9002210BA8FEF799FF0546CF
:102700000DB100BFFEE710B070BD000011480068B9
:1027100040F001000F490860084640680E49084033
:102720000C494860084600680C490840094908609F
:102730000846006820F4802008600846406820F4BD
:10274000FE0048604FF41F008860C8030449086019
:1027500070470000001002400000FFF8FFFFF6FE87
:1027600008ED00E010B5FEF7C9FE00214FF4E010BF
:10277000FFF7A0FF10BD000010B5034A034904484D
:10278000FFF76AFC10BD0000400D0020C00C0020C7
:10279000400C002070B5A2B000251C4A1C496420E2
:1027A000FFF71AFD1BA31DA21FA1214800F056FB35
:1027B0003B20009017231F220C21019040F2EE7065
:1027C000FEF7E0F8054613A314A21AA11F480095CE
:1027D00000F044FB02A91EA000F0B2FF04461B4813
:1027E000FDF7F2FC064602AB204A3146174800943A
:1027F00001F05EFA1EA11D48FDF7C8FC07A21FA14B
:10280000264800F02BFB22B070BD0000A128000874
:10281000E50D000865737031326600003335494FAD
:10282000345A5635444B00002573257300000000D0
:10283000400C0020257325733B313230313031326A
:10284000363B44335658563B25640000C00C0020EC
:1028500035644236563171747A532F54724E544255
:102860005666306262773D3D00000000400D00205A
:102870003B686D61637368613100000025732E69E8
:102880006F74636C6F75642E74656E63656E7464CB
:102890006576696365732E636F6D0000C00D00205F
:1028A00070B504460D4611A12046FDF77BFCE0B152
:1028B00013A12046FDF776FC48B10220FFF7ACFBE0
:1028C00012A000F0BBFA0120134908700DE013A11B
:1028D0002046FDF767FC40B10220FFF765FB12A020
:1028E00000F0ACFA01200C49087070BD226D6574CF
:1028F000686F64223A22636F6E74726F6C220000FC
:10290000224C454431223A31000000000D0AB5C680
:10291000B4F2BFAA0D0A00001E000020224C45445C
:1029200031223A30000000000D0AB5C6B9D8B1D541
:102930000D0A000070B505466C6A0020E085E08451
:102940002046FFF7FCF970BD0168C96821F4907159
:102950000268D1600168496921F001010268516192
:10296000202180F83A10704710B504462068C068EE
:1029700020F040002168C860202084F839002046FB
:10298000FFF7C4FA002010BD70B5044694F83A0071
:10299000222847D1A068B0F5805F0CD1206950B9DA
:1029A0000025A66A20684068C0F308003080A06A4D
:1029B000801CA06215E0A56A0026A068B0F5805FC3
:1029C00003D0A06828B9206918B920684068287029
:1029D00004E02068406800F07F002870A06A401C76
:1029E000A062E08D401E80B2E085C8B92068C06852
:1029F00020F020002168C8602068C06820F4807042
:102A00002168C8602068406920F0010021684861A1
:102A1000202084F83A002046FFF776FA002070BDA7
:102A20000020FCE70220FAE770B504462168096936
:102A300021F44051E2681143226811612269A168C2
:102A40001143626941EA02052168C96841F20C62DA
:102A5000914329432268D1602168496921F440717A
:102A6000A2691143226851612D4A2168914202D125
:102A7000FEF7BAFE01E0FEF7A7FE00EBC00101EB96
:102A8000001162689200B1FBF2F100EBC00202EBB0
:102A9000001263689B00B2FBF3F26423B2FBF3F213
:102AA00002EBC20303EB0212A1EB8201322202EB22
:102AB00001116422B1FBF2F101F0F00100EBC00260
:102AC00002EB001263689B00B2FBF3F26423B2FBDB
:102AD000F3F201EB021200EBC00101EB001163689D
:102AE0009B00B1FBF3F100EBC00303EB001366683E
:102AF000B600B3FBF6F36426B3FBF6F303EBC306B1
:102B000006EB0313A1EB8301322303EB01116423D2
:102B1000B1FBF3F101F00F0111442268916070BD27
:102B200000380140014691F83900212828D18868F1
:102B3000B0F5805F0BD1086948B90A6A1088C0F304
:102B400008000B685860086A801C086205E00B6A80
:102B5000581C086218780B685860C88C401E80B2F8
:102B6000C88458B90868C06820F080000B68D86035
:102B70000868C06840F040000B68D86000207047CB
:102B80000220FCE710B50948006800F0200048B1B9
:102B90000748406830B1054A121D1268D0B2044A95
:102BA000516888470348FFF7CBF810BD0038014053
:102BB0005C0200207402002070B586B004460D4609
:102BC00016462A480560466000BF2948806940F0E3
:102BD0000400274988610846806900F004000190DC
:102BE00000BF00BF00BF0846806940F48040886194
:102BF0000846806900F48040019000BF00BF48157E
:102C0000029002200390032005900120049002A965
:102C10001848FEF7B9FA4FF4806002900020039044
:102C200002A91448FEF7B0FA134814490860084690
:102C3000446000218160C160016181610C214161BA
:102C40000021C161FFF726F90C480068C06840F018
:102C500020000A490968C860012200212520FEF7EA
:102C600095FC2520FEF785FC06B070BD5C020020B7
:102C700000100240000801400038014074020020AA
:102C800000BF0549096801F040010029F9D0024957
:102C9000091D0860704700000038014030B5024649
:102CA0000B46002405E012F8010BFFF7E9FF601C5A
:102CB00084B29C42F7DB30BD10B50948006800F0D3
:102CC000200048B10748C06830B1054A121D12689B
:102CD000D0B2044AD16888470348FFF731F810BDE5
:102CE000004400405C020020B402002070B586B0B1
:102CF00004460D4616462A488560C66000BF29482E
:102D0000806940F00400274988610846806900F026
:102D10000400019000BF00BF00BF0846C06940F436
:102D20000030C8610846C06900F40030019000BF5F
:102D300000BF042002900220039003200590012090
:102D4000049002A91848FEF71FFA082002900020FC
:102D5000039002A91448FEF717FA144814490860B2
:102D60000846446000218160C160016181610C21DD
:102D700041610021C161FFF78DF80D480068C0680E
:102D800040F020000A490968C8600122002126207D
:102D9000FEF7FCFB2620FEF7ECFB06B070BD000042
:102DA0005C02002000100240000801400044004086
:102DB000B402002000BF0549096801F04001002964
:102DC000F9D00249091D0860704700000044004026
:102DD00000B5024603E012F8010BFFF7EBFF107895
:102DE0000028F8D100BD30B502460B46002405E0AE
:102DF00012F8010BFFF7DEFF601C84B29C42F7DB88
:102E000030BD000010B50948006800F0200048B14E
:102E10000748406930B1054A121D1268D0B2044A11
:102E2000516988470348FEF78BFF10BD00480040FA
:102E30005C020020F402002000BFFEE70FB4054B47
:102E400010B503A9044A029800F0DEF810BC5DF842
:102E500014FB0000A9380008580000200FB4084BEC
:102E600010B504A902AA039800F0CEF8044602A9FE
:102E7000002000F060FC204610BC5DF814FB000050
:102E80003737000802E008C8121F08C1002AFAD12B
:102E900070477047002001E001C1121F002AFBD1DA
:102EA000704700002DE9FF5FDDE90220010DDDF82C
:102EB00038B0024318D044F61050A1F2FF3141431C
:102EC0000D140F98012820D0A5EB0B00401C5FEAE1
:102ED000000A4FF00004474EDFF81C91A046504610
:102EE00016D5CAF1000728E00F98012443A2012853
:102EF00008D0002100980F9BC0E90021C0E90243DF
:102F0000BDE8FF9F6FEA0B01F4E7CBF10000DEE7BD
:102F1000074612E0F80707D02246334640464946A6
:102F2000FDF745FB80468946224633461046194642
:102F3000FDF73DFB04460E467F10002FEAD1DDE988
:102F40000201BAF1000F42464B4602DAFDF72FFBB1
:102F500001E0FDF79EFB04460E460022284BFDF7DC
:102F60001FFC03D84FF0FF30014607E00022254B3D
:102F700020463146FDF774FAFDF7FAFB102409E00C
:102F8000002C0ADB0A220023FDF702FA019B3032F3
:102F90001A55641E50EA0102F2D1641C019AC4F170
:102FA000110314440F9A012A03D0012208430DD1C2
:102FB0000AE0084304D000204FF0110B0F9080E787
:102FC000A3EB0B056D1E0DE05B4504DD4FF0000229
:102FD00005F1010504E003DA4FF00002A5F1010557
:102FE000002AECD000980F99C0E90231C0E90045F1
:102FF00086E70000000024400000F03F30000000A1
:103000000000F0430000E03F2DE9FF4F95B09B46E4
:103010008946064600250FE2252877D10024274659
:10302000F84A0121059400E0044316F8013F203BD3
:1030300001FA03F01042F7D130782A2811D06FF04E
:103040002F033078A0F13002092A16D8059A44F0EF
:10305000020402EB820203EB42021044761C05904C
:10306000EFE759F8042B0592002A03DA504244F4A2
:103070000054059044F00204761C30782E2816D1B6
:1030800016F8010F44F004042A280DD06FF02F0227
:103090003078A0F13003092B09D807EB870302EB46
:1030A0004303C718761CF3E759F8047B761C307885
:1030B0006C280FD006DC4C2817D068280DD06A2861
:1030C00014D104E0742810D07A280FD10DE044F414
:1030D00000140AE044F4801401E044F440147278CF
:1030E000824202D104F58014761C761C3078662862
:1030F0000BD013DC582877D009DC002875D0452880
:10310000F6D04628F4D047281AD19DE118E063286C
:1031100035D0642879D0652812D195E1702873D014
:1031200008DC6728F1D069286FD06E280DD06F2891
:1031300006D1B5E073282CD0752875D0782874D0C6
:103140005A46179990476D1C75E1C4F30250022846
:1031500009D003280DD0D9F8001004280DD00D6037
:1031600009F1040967E1D9F80010EA17C1E9005232
:10317000F6E7D9F800100D80F2E70D70F0E719F8C6
:10318000041B8DF8001000208DF80100EA46012094
:1031900003E059F804AB4FF0FF3061074FF0000136
:1031A00002D40DE008F101018846B9420FDA8045EA
:1031B000F8DB1AF808100029F4D108E008F1010141
:1031C00088468142FADB1AF808100029F6D10598E2
:1031D0005B46A0EB080721463846179A00F094FAA0
:1031E000284400EB080507E04DE029E10DE01AF85E
:1031F000010B5A4617999047B8F10108F7D25B4680
:1032000021463846179A13E142E00A220092C4F39D
:1032100002524FF0000A022A08D059F804CB032AC0
:103220004FEAEC710AD00DE029E02AE009F107012C
:1032300021F00702F2E802C1914609E00FFA8CFC86
:103240004FEAEC71042A03D14FFA8CFC4FEAEC717F
:10325000002907DA0A460021DCF1000C61EB0201CB
:103260002D2202E0220504D52B228DF80420012214
:1032700003E0E20701D02022F7E7904659E00A2157
:1032800002E010220DE010214FF0000A00910BE047
:1032900010224FF0000A44F004040827009203E0D3
:1032A00008224FF0000A0092C4F30252022A05D00D
:1032B00059F804CB0021032A08D009E009F10701DD
:1032C00021F00702F2E802C1914605E01FFA8CFCEA
:1032D000042A01D10CF0FF0C4FF00008220728D57A
:1032E000702806D0009B83F0100353EA0A0305D030
:1032F0000EE040228DF80420012208E05CEA010281
:1033000006D030228DF804208DF805000222904668
:10331000009B83F0080353EA0A030AD15CEA010226
:1033200001D1620705D530228DF804204FF0010845
:103330007F1E582804D034A003900EA802900DE000
:1033400036A0F9E753466046009AFDF721F8844617
:103350000398825C0298401E029002705CEA0100B1
:10336000F0D1029806A9081A00F1200A600702D5D8
:1033700024F4803400E00127574502DDA7EB0A0062
:1033800000E0002000EB0A01009005984144401A3B
:103390000590E00306D45B462146179A059800F095
:1033A000B3F90544002706E001A85A46C05D179905
:1033B00090476D1C7F1C4745F6DBE0030CD55B4650
:1033C0002146179A059800F09FF9054404E0302043
:1033D0005A46179990476D1C0099481E0090002985
:1033E000F5DC08E0029802995A460078491C0291DF
:1033F000179990476D1CBAF10001AAF1010AF1DC9E
:1034000065E10000092801003031323334353637A8
:103410003839616263646566000000003031323320
:1034200034353637383941424344454600000000C0
:1034300000F058F90544761C307800287FF4ECAD94
:1034400019B02846BDE8F08F620700D4062709F1BD
:10345000070222F0070CFCE80223E14603F00048D3
:103460005FEA080C02D00FF2702C0DE05FEA045CFA
:1034700002D50FF2682C07E05FEAC47C02D00FF29D
:10348000602C01E0AFF2700C4FF0FF3823F00043E6
:10349000CDF850C065280CD006DC452809D0462858
:1034A0001DD047283DD13DE0662818D067287ED141
:1034B00038E00021112F01DB112000E0781CCDE95C
:1034C000000106A90EA8FFF7EDFCDDE90F010E9A39
:1034D00003910021009207F1010A04914DE04FF0A1
:1034E00000400097CDE9011006A90EA8FFF7DAFC0D
:1034F000DDE90F0203920E9B11990022DDF80CA06A
:103500000093049211B9791C00EB010AB7EB0A0091
:1035100004D4C0F1FF3007F1010A0490AAEB0700C0
:10352000019044E0012F00DA01270021112F01DD75
:10353000112000E03846CDE9000106A90EA8FFF7EA
:10354000B1FCDDE90F010E9A039100210491009274
:10355000BA4621070CD40399514500DA8A46BAF1DC
:10356000010F05DD009AAAF10101515C302908D054
:10357000B84202DA10F1040F06DA0121CDE9011098
:1035800015E0AAF10101E9E7002805DC04990144EE
:103590000491AAEB000102E0411C514500DD8A467E
:1035A0000499401A401C01904FF0004002902007FF
:1035B00004D40198504501DBCDF8048000208DF83B
:1035C0004F0002980DF14F07B0F1004F25D02B208E
:1035D0000E9002984FF0020800280CDA4042029048
:1035E0002D200E9007E00A210298FCF7BBFE303137
:1035F000029007F8011DB8F10001A8F10108F2DC02
:1036000002980028EFD1791E0E980870307800F0EB
:10361000200040F0450007F8020D12A8C01B00F181
:1036200007081498007800B1012000EB0A01019806
:1036300001EBE07105984144401A401E0590E003FB
:1036400006D45B462146179A059800F05DF80544BC
:103650001498007818B15A46179990476D1CE003EA
:1036600024D55B462146179A059800F04DF805448D
:103670001CE00498002807DBDDE90301884203DD34
:103680000098405C179901E0179930205A469047FE
:10369000049805F10105401C04900198401E01901A
:1036A00004D12E205A46179990476D1CBAF100019B
:1036B000AAF1010ADDDC05E017F8010B5A4617995B
:1036C00090476D1CB8F10001A8F10108F4DC5B46DD
:1036D0002146179A0598ABE62D0000002B0000004C
:1036E000200000002DE9F041044600251E46174643
:1036F000880404D405E039462020B0476D1C641EC0
:10370000F9D52846BDE8F0812DE9F04104460025B1
:103710001E469046C80301D5302700E020278804C4
:1037200004D505E041463846B0476D1C641EF9D506
:103730002846BDE8F0810A68531C0B601070704782
:103740002DE9F84305460F460026B04674E0FF22F7
:1037500004216846FCF708FD002409E03A480068A7
:10376000005DA95D884201D18DF80040601CC4B2A3
:10377000402CF3DB00240AE033480068015D701C34
:10378000285C814201D18DF80140601CC4B2402CFC
:10379000F2DB00240AE02C480068015DB01C285CC4
:1037A000814201D18DF80240601CC4B2402CF2DB92
:1037B00000240AE024480068015DF01C285C814276
:1037C00001D18DF80340601CC4B2402CF2DB9DF89F
:1037D0000000FC2101EA80009DF80110C1F30111F5
:1037E0000843414608F101087854B01C285C3D2884
:1037F00000D124E09DF80100F02101EA00109DF8BD
:103800000210C1F383010843414608F101087854CE
:10381000F01C285C3D2800D111E09DF80200F02149
:1038200001EA80109DF8031001F03F010843414672
:1038300008F101087854361DA85D002887D100BF23
:103840004046BDE8F88300005400002030B504462F
:10385000002504E04FF47A7000F004F86D1CA542D6
:10386000F8D330BD70B5034600224FF0E0267569ED
:1038700003EBC306F4004FF0E026B16910E04FF00F
:10388000E026B06988420BD0884202D20E1A324438
:1038900002E02E1A0E4432440146A24200D300E058
:1038A000EDE700BF70BD000000BF054A126802F0DE
:1038B0004002002AF9D0C2B2014B1B1D1A607047AA
:1038C000003801401FB50020009001900290039045
:1038D0002020009000200190029069460148FDF7E9
:1038E00053FC1FBD000C01401FB50020009001904B
:1038F000029003902020009011200190032003905B
:1039000069460248FDF740FC1FBD0000000C014065
:103910001CB5FEF727FFFEF757FB6C48FEF790FE3D
:10392000002211464FF4E130FFF746F9FDF79AFA0D
:10393000FEF730FFFCF7DEFF4FF4FA60FFF786FF7B
:10394000FEF7F4FD624908700846017861A0FFF7B0
:1039500075FABAE06448007801280ED063A0FFF73A
:103960006DFA67A069A36AA26B4900900020FDF779
:103970005DF800206949087007E06848007820B9C0
:10398000FEF7FAFE022065490870FDF7C9FA64489F
:103990000088012802D10020614908806148007830
:1039A000012836D100205F4908705F4908705F49DF
:1039B00008804FF400715E48FCF7DDFB5D49086844
:1039C000FCF7A4FC04465B494868FCF79FFC0546ED
:1039D00023462A4658495648FFF740FA5448FCF710
:1039E000F3FB564908804D480078012811D108465C
:1039F00000884F4B00220221009051A0FEF70EFCE0
:103A000059A0FFF71BFA4A48FFF718FA5AA0FFF728
:103A100015FA4548007801284AD10020424908702B
:103A20004FF400714248FCF7A6FB42490868FCF7D6
:103A30006DFC04463F494868FCF768FC0546234690
:103A40002A463D493A48FFF709FA3948FCF7BCFBDA
:103A50003A49088031480078012811D10846008889
:103A6000334B00220221009035A0FEF7D7FB3EA089
:103A7000FFF7E4F92E48FFF7E1F93FA0FFF7DEF981
:103A8000FCF73EFF2B490868FCF759FC04460D463D
:103A900028494868FCF753FC064632460B4637A0D7
:103AA000CDE90045FFF7CAF94FF47A70FFF7CEFE73
:103AB00036480078012808D100203449087017489A
:103AC0000078012801D1FEF791FB43E7913B000804
:103AD0001F00002044485431315F496E6974203D15
:103AE0002025780D0A00000037000020574946497C
:103AF00020444953434F4E4E45435445440D0A001C
:103B00003636363639393939000000003636360057
:103B10003138383300000000C00D002016000020AE
:103B20001A0000201E0000201400002010000020B9
:103B30005C00002048000020B85800081C0000204D
:103B4000247468696E672F75702F70726F7065725C
:103B500074792F3335494F345A5635444B2F65739A
:103B600070313266000000000D0AB7A2B2BCCAFD77
:103B7000BEDD3A0D0A0000000D0A000074656D708C
:103B80003A25662C68756D3A256600001500002000
:103B900010B535480088B0F57A7F05DA32480088DC
:103BA000401C3149088026E000202F490880012070
:103BB000FEF742FA01202D4908802D480078401C6C
:103BC000C0B22B4908703C2815D100200870294844
:103BD0000078401CC0B2274908703C280BD1002057
:103BE000087025480078401CC0B223490870182886
:103BF00001D1002008702148008842F210718842EB
:103C000005DA1E480088401C1C49088005E0002099
:103C10001A49088001201A4908701A48008840F69D
:103C2000B831884205DA17480088401C15490880D9
:103C300005E000201349088001201349087013484B
:103C4000007801280FD1124800781E2804DA1048A5
:103C50000078401C0E4908700D480078142802D1E5
:103C600001200C49088010BD180000201A00002017
:103C70002A00002029000020280000201200002037
:103C80001500002010000020140000203700002044
:103C90003600002034000020014601F00F010A29FF
:103CA00002DA01F1300001E001F1570040B2704743
:103CB0002DE9F043BDB00646884615461F46DDF89F
:103CC00010910EB105B117B93DB0BDE8F083B9F15F
:103CD000400F00DDF8E7402116A8FCF74CFA402120
:103CE00006A8FCF748FA4A46394616A8FCF72AFA0D
:103CF0004A46394606A8FCF725FA00240CE016A827
:103D0000005D80F0360016A9085506A8005D80F019
:103D10005C0006A90855641C402CF0DB26A800F0C6
:103D2000AFF826A801F042FD402216A926A801F00E
:103D300053FD4246314626A801F04EFD01A926A8B2
:103D400000F02AF826A800F09BF826A801F02EFD26
:103D5000402206A926A801F03FFD142201A926A8A9
:103D600001F03AFD01A926A800F016F800240FE0A2
:103D700001A9095D0811FFF78FFF05F8140001A9DB
:103D8000085DFFF789FF012101EB44016854641CC1
:103D9000142CEDDB00BF97E72DE9FC4704460D46E8
:103DA0002068400F616840EAC1062068C700300EF5
:103DB0008DF80000300C8DF80100300A8DF80200FB
:103DC000F0B28DF80300380E8DF80400380C8DF831
:103DD0000500380A8DF80600F8B28DF80700207843
:103DE00000F03F08B8F1380F02D2C8F1380001E006
:103DF000C8F1780081464A462049204601F0ECFC93
:103E000008226946204601F0E7FCA068000E2870F1
:103E1000A068000C68702089000AA870207AE870F9
:103E2000E068000E2871E068000C6871A089000A43
:103E3000A871207BE8712069000E28722069000CAF
:103E40006872208A000AA872207CE8726069000EFD
:103E500028736069000C6873A08A000AA873207D2B
:103E6000E873A069000E2874A069000C6874208BA8
:103E7000000AA874207EE874BDE8FC877858000822
:103E800010B504465C212046FCF775F910BD000012
:103E90002DE9F04390B007460E4696F800C04FEA71
:103EA0000C6C96F801804CEA084C96F802804CEABB
:103EB000082C96F803804CEA080CCDF800C096F860
:103EC00004C04FEA0C6C96F805804CEA084C96F852
:103ED00006804CEA082C96F807804CEA080CCDF8CE
:103EE00004C096F808C04FEA0C6C96F809804CEABA
:103EF000084C96F80A804CEA082C96F80B804CEA9D
:103F0000080CCDF808C096F80CC04FEA0C6C96F877
:103F10000D804CEA084C96F80E804CEA082C96F876
:103F20000F804CEA080CCDF80CC096F810C04FEA90
:103F30000C6C96F811804CEA084C96F812804CEA0A
:103F4000082C96F813804CEA080CCDF810C096F8AF
:103F500014C04FEA0C6C96F815804CEA084C96F8A1
:103F600016804CEA082C96F817804CEA080CCDF81D
:103F700014C096F818C04FEA0C6C96F819804CEAF9
:103F8000084C96F81A804CEA082C96F81B804CEAEC
:103F9000080CCDF818C096F81CC04FEA0C6C96F8C7
:103FA0001D804CEA084C96F81E804CEA082C96F8C6
:103FB0001F804CEA080CCDF81CC096F820C04FEAD0
:103FC0000C6C96F821804CEA084C96F822804CEA5A
:103FD000082C96F823804CEA080CCDF820C096F8FF
:103FE00024C04FEA0C6C96F825804CEA084C96F8F1
:103FF00026804CEA082C96F827804CEA080CCDF86D
:1040000024C096F828C04FEA0C6C96F829804CEA38
:10401000084C96F82A804CEA082C96F82B804CEA3B
:10402000080CCDF828C096F82CC04FEA0C6C96F816
:104030002D804CEA084C96F82E804CEA082C96F815
:104040002F804CEA080CCDF82CC096F830C04FEA0F
:104050000C6C96F831804CEA084C96F832804CEAA9
:10406000082C96F833804CEA080CCDF830C096F84E
:1040700034C04FEA0C6C96F835804CEA084C96F840
:1040800036804CEA082C96F837804CEA080CCDF8BC
:1040900034C096F838C04FEA0C6C96F839804CEA78
:1040A000084C96F83A804CEA082C96F83B804CEA8B
:1040B000080CCDF838C096F83CC04FEA0C6C96F866
:1040C0003D804CEA084C96F83E804CEA082C96F865
:1040D0003F804CEA080CCDF83CC0B868F9683A69F2
:1040E0007B69BC694FEA401C4CEAD06882EA030C49
:1040F0000CEA010C8CEA030CC444DFF8F88FC444CA
:10410000DDF80080C44464444FEA817C4CEA9101AC
:104110004FEA441C4CEAD46881EA020C0CEA000C19
:104120008CEA020CC444DFF8CC8FC444DDF8048070
:10413000C44463444FEA807C4CEA90004FEA431C3D
:104140004CEAD36880EA010C0CEA040C8CEA010CFE
:10415000C444DFF8A08FC444DDF80880C44462443E
:104160004FEA847C4CEA94044FEA421C4CEAD26841
:1041700084EA000C0CEA030C8CEA000CC444DFF85F
:10418000748FC444DDF80C80C44461444FEA837CDE
:104190004CEA93034FEA411C4CEAD16883EA040CD1
:1041A0000CEA020C8CEA040CC444DFF8488FC444C7
:1041B000DDF81080C44460444FEA827C4CEA9202ED
:1041C0004FEA401C4CEAD06882EA030C0CEA010C6E
:1041D0008CEA030CC444DFF81C8FC444DDF814805F
:1041E000C44464444FEA817C4CEA91014FEA441C88
:1041F0004CEAD46881EA020C0CEA000C8CEA020C4E
:10420000C444DFF8F08EC444DDF81880C44463442D
:104210004FEA807C4CEA90004FEA431C4CEAD3689A
:1042200080EA010C0CEA040C8CEA010CC444DFF8AF
:10423000C48EC444DDF81C80C44462444FEA847CCC
:104240004CEA94044FEA421C4CEAD26884EA000C1F
:104250000CEA030C8CEA000CC444DFF8988EC444CA
:10426000DDF82080C44461444FEA837C4CEA930328
:104270004FEA411C4CEAD16883EA040C0CEA020CB8
:104280008CEA040CC444DFF86C8EC444DDF824804E
:10429000C44460444FEA827C4CEA92024FEA401CDC
:1042A0004CEAD06882EA030C0CEA010C8CEA030C9D
:1042B000C444DFF8408EC444DDF82880C44464441C
:1042C0004FEA817C4CEA91014FEA441C4CEAD468E5
:1042D00081EA020C0CEA000C8CEA020CC444DFF800
:1042E000148EC444DDF82C80C44463444FEA807CBF
:1042F0004CEA90004FEA431C4CEAD36880EA010C78
:104300000CEA040C8CEA010CC444DFF8E88DC444C8
:10431000DDF83080C44462444FEA847C4CEA940463
:104320004FEA421C4CEAD26884EA000C0CEA030C07
:104330008CEA000CC444DFF8BC8DC444DDF8348042
:10434000C44461444FEA837C4CEA93034FEA411C26
:104350004CEAD16883EA040C0CEA020C8CEA040CE7
:10436000C444DFF8908DC444DDF83880C444604410
:104370004FEA827C4CEA92024FEA401C4CEAD06839
:1043800082EA030C0CEA010C8CEA030CC444DFF84B
:10439000648DC444DDF83C80C44464444FEA817CAD
:1043A0004CEA9101DDF834C0DDF820808CEA080C7D
:1043B000DDF808808CEA080CDDF800808CEA08053E
:1043C0004FEA450C4CEAD5784FEA441C4CEAD469D4
:1043D00081EA020C0CEA000C8CEA020CCC44DFF8F7
:1043E000149DCC44C4446344CDF800804FEA807CE3
:1043F0004CEA9000DDF838C0DDF824808CEA080C27
:10440000DDF80C808CEA080CDDF804808CEA0805E5
:104410004FEA450C4CEAD5784FEA431C4CEAD36985
:1044200080EA010C0CEA040C8CEA010CCC44DFF8A5
:10443000C49CCC44C4446244CDF804804FEA847CDC
:104440004CEA9404DDF83CC0DDF828808CEA080CC6
:10445000DDF810808CEA080CDDF808808CEA08058D
:104460004FEA450C4CEAD5784FEA421C4CEAD26937
:1044700084EA000C0CEA030C8CEA000CCC44DFF854
:10448000749CCC44C4446144CDF808804FEA837CDA
:104490004CEA9303DDF800C0DDF82C808CEA080CB0
:1044A000DDF814808CEA080CDDF80C808CEA080535
:1044B0004FEA450C4CEAD5784FEA411C4CEAD169E9
:1044C00083EA040C0CEA020C8CEA040CCC44DFF8FE
:1044D000249CCC44C4446044CDF80C804FEA827CD8
:1044E0004CEA9202DDF804C0DDF830808CEA080C5A
:1044F000DDF818808CEA080CDDF810808CEA0805DD
:104500004FEA450C4CEAD5784FEA401C4CEAD0699A
:1045100081EA020C8CEA030CCC44DFF8DC9BCC442F
:10452000C4446444CDF810804FEA817C4CEA910188
:10453000DDF808C0DDF834808CEA080CDDF81C805A
:104540008CEA080CDDF814808CEA08054FEA450C6B
:104550004CEAD5784FEA441C4CEAD46980EA010C55
:104560008CEA020CCC44DFF8909BCC44C4446344F6
:10457000CDF814804FEA807C4CEA9000DDF80CC046
:10458000DDF838808CEA080CDDF820808CEA080C15
:10459000DDF818808CEA08054FEA450C4CEAD5781E
:1045A0004FEA431C4CEAD36984EA000C8CEA010C04
:1045B000CC44DFF8449BCC44C4446244CDF818801A
:1045C0004FEA847C4CEA9404DDF810C0DDF83C80AE
:1045D0008CEA080CDDF824808CEA080CDDF81C80DD
:1045E0008CEA08054FEA450C4CEAD5784FEA421CA4
:1045F0004CEAD26983EA040C8CEA000CCC44DFF864
:10460000F89ACC44C4446144CDF81C804FEA837CC2
:104610004CEA9303DDF814C0DDF800808CEA080C46
:10462000DDF828808CEA080CDDF820808CEA08058B
:104630004FEA450C4CEAD5784FEA411C4CEAD16967
:1046400082EA030C8CEA040CCC44DFF8AC9ACC442C
:10465000C4446044CDF820804FEA827C4CEA920248
:10466000DDF818C0DDF804808CEA080CDDF82C8039
:104670008CEA080CDDF824808CEA08054FEA450C2A
:104680004CEAD5784FEA401C4CEAD06981EA020C2A
:104690008CEA030CCC44DFF8609ACC44C4446444F4
:1046A000CDF824804FEA817C4CEA9101DDF81CC0F2
:1046B000DDF808808CEA080CDDF830808CEA080C04
:1046C000DDF828808CEA08054FEA450C4CEAD578DD
:1046D0004FEA441C4CEAD46980EA010C8CEA020CD3
:1046E000CC44DFF8149ACC44C4446344CDF8288009
:1046F0004FEA807C4CEA9000DDF820C0DDF80C80A9
:104700008CEA080CDDF834808CEA080CDDF82C808B
:104710008CEA08054FEA450C4CEAD5784FEA431C71
:104720004CEAD36984EA000C8CEA010CCC44DFF833
:10473000C899CC44C4446244CDF82C804FEA847CB0
:104740004CEA9404DDF824C0DDF810808CEA080CF3
:10475000DDF838808CEA080CDDF830808CEA08053A
:104760004FEA450C4CEAD5784FEA421C4CEAD26934
:1047700083EA040C8CEA000CCC44DFF87C99CC442E
:10478000C4446144CDF830804FEA837C4CEA930303
:10479000DDF828C0DDF814808CEA080CDDF83C80D8
:1047A0008CEA080CDDF834808CEA08054FEA450CE9
:1047B0004CEAD5784FEA411C4CEAD16982EA030CF5
:1047C0008CEA040CCC44DFF83099CC44C4446044F7
:1047D000CDF834804FEA827C4CEA9202DDF82CC09E
:1047E000DDF818808CEA080CDDF800808CEA080CF3
:1047F000DDF838808CEA08054FEA450C4CEAD5789C
:104800004FEA401C4CEAD06981EA020C8CEA030CA6
:10481000CC44DFF8E498CC44C4446444CDF83880F8
:104820004FEA817C4CEA9101DDF830C0DDF81C8054
:104830008CEA080CDDF804808CEA080CDDF83C807A
:104840008CEA08054FEA450C4CEAD5784FEA441C3F
:104850004CEAD46980EA010C8CEA020CCC44DFF803
:104860009898CC44C4446344CDF83C804FEA807CA3
:104870004CEA9000DDF834C0DDF820808CEA080CAA
:10488000DDF808808CEA080CDDF800808CEA080569
:104890004FEA450C4CEAD5784FEA431C4CEAD36901
:1048A00084EA000C8CEA010CCC44DFF84C98CC4430
:1048B000C4446244CDF800804FEA847C4CEA9404FE
:1048C000DDF838C0DDF824808CEA080CDDF80C80B7
:1048D0008CEA080CDDF804808CEA08054FEA450CE8
:1048E0004CEAD5784FEA421C4CEAD26983EA040CC0
:1048F0008CEA000CCC44DFF80098CC44C4446144FA
:10490000CDF804804FEA837C4CEA9303DDF83CC089
:10491000DDF828808CEA080CDDF810808CEA080CA1
:10492000DDF808808CEA08054FEA450C4CEAD5789A
:104930004FEA411C4CEAD16982EA030C8CEA040C70
:10494000CC44DFF8B497CC44C4446044CDF808802C
:104950004FEA827C4CEA9202DDF800C0DDF82C8040
:104960008CEA080CDDF814808CEA080CDDF80C8069
:104970008CEA08054FEA450C4CEAD5784FEA401C12
:104980004CEAD06981EA020C8CEA030CCC44DFF8D3
:104990006897CC44C4446444CDF80C804FEA817CD1
:1049A0004CEA9101DDF804C0DDF830808CEA080C97
:1049B000DDF818808CEA080CDDF810808CEA080518
:1049C0004FEA450C4CEAD5784FEA441C4CEAD469CE
:1049D00080EA010C8CEA020CCC44DFF81C97CC4432
:1049E000C4446344CDF810804FEA807C4CEA9000C8
:1049F000DDF808C0DDF834808CEA080CDDF81C8096
:104A00008CEA080CDDF814808CEA08054FEA450CA6
:104A10004CEAD5784FEA431C4CEAD36984EA000C8F
:104A20008CEA010CCC44DFF8D096CC44C4446244F8
:104A3000CDF814804FEA847C4CEA9404DDF80CC075
:104A4000DDF838808CEA080CDDF820808CEA080C50
:104A5000DDF818808CEA08054FEA450C4CEAD57859
:104A60004FEA421C4CEAD26983EA040C8CEA000C3F
:104A7000CC44DFF88496CC44C4446144CDF818801B
:104A80004FEA837C4CEA9303DDF810C0DDF83C80EC
:104A90008CEA080CDDF824808CEA080CDDF81C8018
:104AA0008CEA08054FEA450C4CEAD5784FEA411CE0
:104AB0004CEAD16982EA030C8CEA040CCC44DFF89E
:104AC0003896CC44C4446044CDF81C804FEA827CC4
:104AD0004CEA92024FEA401C4CEAD06901EA020C0F
:104AE00041EA020808EA03084CEA080CCC44DFF863
:104AF0000C86E044DDF814C0DDF800908CEA090C67
:104B0000DDF828908CEA090CDDF820908CEA090584
:104B10004FEA450C4CEAD57CCDF820C0C44464442F
:104B20004FEA817C4CEA91014FEA441C4CEAD4697B
:104B300000EA010C40EA010808EA02084CEA080C05
:104B4000CC44DFF8B885E044DDF818C0DDF8049007
:104B50008CEA090CDDF82C908CEA090CDDF8249025
:104B60008CEA09054FEA450C4CEAD57CCDF824C007
:104B7000C44463444FEA807C4CEA90004FEA431CF3
:104B80004CEAD36904EA000C44EA000808EA010888
:104B90004CEA080CCC44DFF86485E044DDF81CC026
:104BA000DDF808908CEA090CDDF830908CEA090CED
:104BB000DDF828908CEA09054FEA450C4CEAD57CD3
:104BC000CDF828C0C44462444FEA847C4CEA940483
:104BD0004FEA421C4CEAD26903EA040C43EA040897
:104BE00008EA00084CEA080CCC44DFF81085E044E1
:104BF000DDF820C0DDF80C908CEA090CDDF834906B
:104C00008CEA090CDDF82C908CEA09054FEA450C7A
:104C10004CEAD57CCDF82CC0C44461444FEA837C77
:104C20004CEA93034FEA411C4CEAD16902EA030CB7
:104C300042EA030808EA04084CEA080CCC44DFF80E
:104C4000BC84E044DDF824C0DDF810908CEA090C47
:104C5000DDF838908CEA090CDDF830908CEA090513
:104C60004FEA450C4CEAD57CCDF830C0C4446044D2
:104C70004FEA827C4CEA92024FEA401C4CEAD0692F
:104C800001EA020C41EA020808EA03084CEA080CAF
:104C9000CC44DFF86884E044DDF828C0DDF81490E7
:104CA0008CEA090CDDF83C908CEA090CDDF83490B4
:104CB0008CEA09054FEA450C4CEAD57CCDF834C0A6
:104CC000C44464444FEA817C4CEA91014FEA441C9D
:104CD0004CEAD46900EA010C40EA010808EA02083B
:104CE0004CEA080CCC44DFF81484E044DDF82CC016
:104CF000DDF818908CEA090CDDF800908CEA090CBC
:104D0000DDF838908CEA09054FEA450C4CEAD57C71
:104D1000CDF838C0C44463444FEA807C4CEA90002C
:104D20004FEA431C4CEAD36904EA000C44EA000849
:104D300008EA01084CEA080CCC44DFF8C083E044E0
:104D4000DDF830C0DDF81C908CEA090CDDF8049029
:104D50008CEA090CDDF83C908CEA09054FEA450C19
:104D60004CEAD57CCDF83CC0C44462444FEA847C14
:104D70004CEA94044FEA421C4CEAD26903EA040C60
:104D800043EA040808EA00084CEA080CCC44DFF8BF
:104D90006C83E044DDF834C0DDF820908CEA090C27
:104DA000DDF808908CEA090CDDF800908CEA090522
:104DB0004FEA450C4CEAD57CCDF800C0C4446144B0
:104DC0004FEA837C4CEA93034FEA411C4CEAD169D9
:104DD00002EA030C42EA030808EA04084CEA080C59
:104DE000CC44DFF81883E044DDF838C0DDF82490C7
:104DF0008CEA090CDDF80C908CEA090CDDF80490C3
:104E00008CEA09054FEA450C4CEAD57CCDF804C084
:104E1000C44460444FEA827C4CEA92024FEA401C50
:104E20004CEAD06901EA020C41EA020808EA0308E8
:104E30004CEA080CCC44DFF8C482E044DDF83CC006
:104E4000DDF828908CEA090CDDF810908CEA090C4A
:104E5000DDF808908CEA09054FEA450C4CEAD57C50
:104E6000CDF808C0C44464444FEA817C4CEA910107
:104E70004FEA441C4CEAD46900EA010C40EA0108FC
:104E800008EA02084CEA080CCC44DFF87082E044DF
:104E9000DDF800C0DDF82C908CEA090CDDF81490E8
:104EA0008CEA090CDDF80C908CEA09054FEA450CF8
:104EB0004CEAD57CCDF80CC0C44463444FEA807CF6
:104EC0004CEA90004FEA431C4CEAD36904EA000C18
:104ED00044EA000808EA01084CEA080CCC44DFF870
:104EE0001C82E044DDF804C0DDF830908CEA090C47
:104EF000DDF818908CEA090CDDF810908CEA0905B1
:104F00004FEA450C4CEAD57CCDF810C0C44462444D
:104F10004FEA847C4CEA94044FEA421C4CEAD26982
:104F200003EA040C43EA040808EA00084CEA080C07
:104F3000CC44DFF8C881E044DDF808C0DDF83490E7
:104F40008CEA090CDDF81C908CEA090CDDF8149051
:104F50008CEA09054FEA450C4CEAD57CCDF814C023
:104F6000C44461444FEA837C4CEA93034FEA411CFA
:104F70004CEAD16902EA030C42EA030808EA040891
:104F80004CEA080CCC44DFF87481E044DDF80CC036
:104F9000DDF838908CEA090CDDF820908CEA090CD9
:104FA000DDF818908CEA09054FEA450C4CEAD57CEF
:104FB000CDF818C0C44460444FEA827C4CEA9202A7
:104FC0004FEA401C4CEAD06901EA020C41EA0208AF
:104FD00008EA03084CEA080CCC44DFF82081E044DE
:104FE000DDF810C0DDF83C908CEA090CDDF8249067
:104FF0008CEA090CDDF81C908CEA09054FEA450C97
:105000004CEAD57CCDF81CC0C44464444FEA817C92
:105010004CEA91014FEA441C4CEAD46900EA010CC5
:1050200040EA010808EA02084CEA080CCC44DFF820
:10503000CC80E044DDF814C0DDF800908CEA090C67
:10504000DDF828908CEA090CDDF820908CEA09053F
:105050004FEA450C4CEAD57CCDF820C0C4446344EB
:105060004FEA807C4CEA90004FEA431C4CEAD3693B
:1050700004EA000C44EA000808EA01084CEA080CBB
:10508000CC44DFF87880E044DDF818C0DDF8049007
:105090008CEA090CDDF82C908CEA090CDDF82490E0
:1050A0008CEA09054FEA450C4CEAD57CCDF824C0C2
:1050B000C44462444FEA847C4CEA94044FEA421CA4
:1050C0004CEAD26903EA040C43EA040808EA00083F
:1050D0004CEA080CCC44DFF82480E044DDF81CC026
:1050E000DDF808908CEA090CDDF830908CEA090CA8
:1050F00006E000009979825AA1EBD96EDCBC1B8FC7
:10510000DDF828908CEA09054FEA450C4CEAD57C7D
:10511000CDF828C0C44461444FEA837C4CEA930331
:105120004FEA411C4CEAD16902EA030C42EA030847
:1051300008EA04084CEA080CCC44DFF86886E0442E
:10514000DDF820C0DDF80C908CEA090CDDF8349015
:105150008CEA090CDDF82C908CEA09054FEA450C25
:105160004CEAD57CCDF82CC0C44460444FEA827C24
:105170004CEA9202DDF824C0DDF810808CEA080CBD
:10518000DDF838808CEA080CDDF830808CEA080500
:105190004FEA450C4CEAD5784FEA401C4CEAD069FE
:1051A00081EA020C8CEA030CCC44DFF8FC95CC4479
:1051B000C4446444CDF830804FEA817C4CEA9101CC
:1051C000DDF828C0DDF814808CEA080CDDF83C809E
:1051D0008CEA080CDDF834808CEA08054FEA450CAF
:1051E0004CEAD5784FEA441C4CEAD46980EA010CB9
:1051F0008CEA020CCC44DFF8B095CC44C444634440
:10520000CDF834804FEA807C4CEA9000DDF82CC069
:10521000DDF818808CEA080CDDF800808CEA080CB8
:10522000DDF838808CEA08054FEA450C4CEAD57861
:105230004FEA431C4CEAD36984EA000C8CEA010C67
:10524000CC44DFF86495CC44C4446244CDF8388043
:105250004FEA847C4CEA9404DDF830C0DDF81C8011
:105260008CEA080CDDF804808CEA080CDDF83C8040
:105270008CEA08054FEA450C4CEAD5784FEA421C07
:105280004CEAD26983EA040C8CEA000CCC44DFF8C7
:105290001895CC44C4446144CDF83C804FEA837CEB
:1052A0004CEA9303DDF834C0DDF820808CEA080C6A
:1052B000DDF808808CEA080CDDF800808CEA08052F
:1052C0004FEA450C4CEAD5784FEA411C4CEAD169CB
:1052D00082EA030C8CEA040CCC44DFF8CC94CC4476
:1052E000C4446044CDF800804FEA827C4CEA9202CC
:1052F000DDF838C0DDF824808CEA080CDDF80C807D
:105300008CEA080CDDF804808CEA08054FEA450CAD
:105310004CEAD5784FEA401C4CEAD06981EA020C8D
:105320008CEA030CCC44DFF88094CC44C44464443D
:10533000CDF804804FEA817C4CEA9101DDF83CC055
:10534000DDF828808CEA080CDDF810808CEA080C67
:10535000DDF808808CEA08054FEA450C4CEAD57860
:105360004FEA441C4CEAD46980EA010C8CEA020C36
:10537000CC44DFF83494CC44C4446344CDF8088072
:105380004FEA807C4CEA9000DDF800C0DDF82C800C
:105390008CEA080CDDF814808CEA080CDDF80C802F
:1053A0008CEA08054FEA450C4CEAD5784FEA431CD5
:1053B0004CEAD36984EA000C8CEA010CCC44DFF897
:1053C000E893CC44C4446244CDF80C804FEA847C1A
:1053D0004CEA9404DDF804C0DDF830808CEA080C57
:1053E000DDF818808CEA080CDDF810808CEA0805DE
:1053F0004FEA450C4CEAD5784FEA421C4CEAD26998
:1054000083EA040C8CEA000CCC44DFF89C93CC4477
:10541000C4446144CDF810804FEA837C4CEA930386
:10542000DDF808C0DDF834808CEA080CDDF81C805B
:105430008CEA080CDDF814808CEA08054FEA450C6C
:105440004CEAD5784FEA411C4CEAD16982EA030C58
:105450008CEA040CCC44DFF85093CC44C444604440
:10546000CDF814804FEA827C4CEA9202DDF80CC041
:10547000DDF838808CEA080CDDF820808CEA080C16
:10548000DDF818808CEA08054FEA450C4CEAD5781F
:105490004FEA401C4CEAD06981EA020C8CEA030C0A
:1054A000CC44DFF80493CC44C4446444CDF8188061
:1054B0004FEA817C4CEA9101DDF810C0DDF83C80B8
:1054C0008CEA080CDDF824808CEA080CDDF81C80DE
:1054D0008CEA08054FEA450C4CEAD5784FEA441CA3
:1054E0004CEAD46980EA010C8CEA020CCC44DFF867
:1054F000B892CC44C4446344CDF81C804FEA807C0D
:105500004CEA9000DDF814C0DDF800808CEA080C4D
:10551000DDF828808CEA080CDDF820808CEA08058C
:105520004FEA450C4CEAD5784FEA431C4CEAD36964
:1055300084EA000C8CEA010CCC44DFF86C92CC4479
:10554000C4446244CDF820804FEA847C4CEA940441
:10555000DDF818C0DDF804808CEA080CDDF82C803A
:105560008CEA080CDDF824808CEA08054FEA450C2B
:105570004CEAD5784FEA421C4CEAD26983EA040C23
:105580008CEA000CCC44DFF82092CC44C444614443
:10559000CDF824804FEA837C4CEA9303DDF81CC0ED
:1055A000DDF808808CEA080CDDF830808CEA080C05
:1055B000DDF828808CEA08054FEA450C4CEAD578DE
:1055C0004FEA411C4CEAD16982EA030C8CEA040CD4
:1055D000CC44DFF8D491CC44C4446044CDF8288056
:1055E0004FEA827C4CEA9202DDF820C0DDF80C80A4
:1055F0008CEA080CDDF834808CEA080CDDF82C808D
:105600008CEA08054FEA450C4CEAD5784FEA401C75
:105610004CEAD06981EA020C8CEA030CCC44DFF836
:105620008891CC44C4446444CDF82C804FEA817CFA
:105630004CEA9101DDF824C0DDF810808CEA080CFA
:10564000DDF838808CEA080CDDF830808CEA08053B
:105650004FEA450C4CEAD5784FEA441C4CEAD46931
:1056600080EA010C8CEA020CCC44DFF83C91CC447B
:10567000C4446344CDF830804FEA807C4CEA90000B
:10568000DDF828C0DDF814808CEA080CDDF83C80D9
:105690008CEA080CDDF834808CEA08054FEA450CEA
:1056A0004CEAD5784FEA431C4CEAD36984EA000CF3
:1056B0008CEA010CCC44DFF8F090CC44C444624442
:1056C000CDF834804FEA847C4CEA9404DDF82CC099
:1056D000DDF818808CEA080CDDF800808CEA080CF4
:1056E000DDF838808CEA08054FEA450C4CEAD5789D
:1056F0004FEA421C4CEAD26983EA040C8CEA000CA3
:10570000CC44DFF8A490CC44C4446144CDF8388044
:105710004FEA837C4CEA9303DDF830C0DDF81C804F
:105720008CEA080CDDF804808CEA080CDDF83C807B
:105730008CEA08054FEA450C4CEAD5784FEA411C43
:105740004CEAD16982EA030C8CEA040CCC44DFF801
:105750005890CC44C4446044CDF83C804FEA827CED
:105760004CEA9202D7F808C08444C7F808C0D7F8BA
:105770000CC00CEB0108C7F80C80D7F810C00CEB7C
:105780000208C7F81080D7F814C00CEB0308C7F85C
:105790001480D7F818C00CEB0408C7F8188010B0B4
:1057A000BDE8F083DCBC1B8FD6C162CA002101605A
:1057B000416006498160064AC260CA430261044AE8
:1057C000D2434261034A826170470000012345676A
:1057D00089ABCDEFF0E1D2C32DE9F0410446884614
:1057E00015460DB9BDE8F081207800F03F07C7F1FC
:1057F0004006206828442060206820602068A84275
:1058000002D26068401C606087B1B5420ED304F1DB
:105810001C01C81932464146FAF794FC04F11C01F8
:105820002046FEF735FBB044AD1B002706E041469D
:105830002046FEF72DFB08F14008403D402DF6D2F2
:1058400035B104F11C01C8192A464146FAF77AFC21
:1058500000BFC7E7000000000000000001020304D1
:105860000607080900000000010203041F1C1F1E98
:105870001F1E1F1F1E1F1E1F8000000000000000B3
:105880000000000000000000000000000000000018
:105890000000000000000000000000000000000008
:1058A00000000000000000000000000000000000F8
:1058B00000000000000000007B226D6574686F64CA
:1058C000223A227265706F7274222C22636C6965B1
:1058D0006E74546F6B656E223A2231383833313230
:1058E0003437313339222C22706172616D73223A60
:1058F000090909097B226C656431223A302C227433
:10590000656D70223A25642C2268756D223A2564F3
:105910007D7D0000544350005544500041424344B3
:1059200045464748494A4B4C4D4E4F5051525354AF
:1059300055565758595A6162636465666768696A63
:105940006B6C6D6E6F707172737475767778797A2F
:10595000303132333435363738392B2F00000000E0
:1059600080590008000000205C000000842E000820
:10597000DC5900085C000020E4110000942E0008AF
:1059800000A24A0400000000100000000100000016
:105990000000000000000000000000000000000007
:1059A0000000000000000000173B000000000000A5
:1059B0000000000000000000000100001459000871
:1059C000185900080000000000000000000000005E
:0C59D000000000001C590008000000004E
:04000005080000ED02
:00000001FF
